{
  "_format": "hh-sol-artifact-1",
  "contractName": "Upload",
  "sourceName": "contracts/Upload.sol",
  "abi": [
    {
      "anonymous": false,
      "inputs": [
        {
          "indexed": true,
          "internalType": "address",
          "name": "owner",
          "type": "address"
        },
        {
          "indexed": false,
          "internalType": "string[]",
          "name": "_urls",
          "type": "string[]"
        }
      ],
      "name": "DisplayUrls",
      "type": "event"
    },
    {
      "inputs": [
        {
          "internalType": "address",
          "name": "",
          "type": "address"
        }
      ],
      "name": "accessList",
      "outputs": [
        {
          "internalType": "address",
          "name": "user",
          "type": "address"
        },
        {
          "internalType": "bool",
          "name": "access",
          "type": "bool"
        }
      ],
      "stateMutability": "view",
      "type": "function"
    },
    {
      "inputs": [
        {
          "internalType": "address",
          "name": "",
          "type": "address"
        }
      ],
      "name": "accessed",
      "outputs": [
        {
          "internalType": "bool",
          "name": "",
          "type": "bool"
        }
      ],
      "stateMutability": "view",
      "type": "function"
    },
    {
      "inputs": [
        {
          "internalType": "address",
          "name": "_user",
          "type": "address"
        },
        {
          "internalType": "string",
          "name": "url",
          "type": "string"
        }
      ],
      "name": "add",
      "outputs": [],
      "stateMutability": "nonpayable",
      "type": "function"
    },
    {
      "inputs": [
        {
          "internalType": "address",
          "name": "_user",
          "type": "address"
        }
      ],
      "name": "allow",
      "outputs": [],
      "stateMutability": "nonpayable",
      "type": "function"
    },
    {
      "inputs": [
        {
          "internalType": "address",
          "name": "_user",
          "type": "address"
        }
      ],
      "name": "disallow",
      "outputs": [],
      "stateMutability": "nonpayable",
      "type": "function"
    },
    {
      "inputs": [
        {
          "internalType": "address",
          "name": "_user",
          "type": "address"
        }
      ],
      "name": "display",
      "outputs": [
        {
          "internalType": "string[]",
          "name": "",
          "type": "string[]"
        }
      ],
      "stateMutability": "nonpayable",
      "type": "function"
    },
    {
      "inputs": [
        {
          "internalType": "address",
          "name": "_user",
          "type": "address"
        }
      ],
      "name": "isUserPresent",
      "outputs": [
        {
          "internalType": "bool",
          "name": "",
          "type": "bool"
        }
      ],
      "stateMutability": "view",
      "type": "function"
    },
    {
      "inputs": [
        {
          "internalType": "uint256",
          "name": "",
          "type": "uint256"
        }
      ],
      "name": "keys",
      "outputs": [
        {
          "internalType": "address",
          "name": "",
          "type": "address"
        }
      ],
      "stateMutability": "view",
      "type": "function"
    },
    {
      "inputs": [
        {
          "internalType": "address",
          "name": "",
          "type": "address"
        },
        {
          "internalType": "address",
          "name": "",
          "type": "address"
        }
      ],
      "name": "ownership",
      "outputs": [
        {
          "internalType": "bool",
          "name": "",
          "type": "bool"
        }
      ],
      "stateMutability": "view",
      "type": "function"
    },
    {
      "inputs": [
        {
          "internalType": "address",
          "name": "",
          "type": "address"
        },
        {
          "internalType": "address",
          "name": "",
          "type": "address"
        }
      ],
      "name": "previousData",
      "outputs": [
        {
          "internalType": "bool",
          "name": "",
          "type": "bool"
        }
      ],
      "stateMutability": "view",
      "type": "function"
    },
    {
      "inputs": [],
      "name": "shareAccess",
      "outputs": [
        {
          "components": [
            {
              "internalType": "address",
              "name": "user",
              "type": "address"
            },
            {
              "internalType": "bool",
              "name": "access",
              "type": "bool"
            }
          ],
          "internalType": "struct Upload.Access",
          "name": "",
          "type": "tuple"
        }
      ],
      "stateMutability": "view",
      "type": "function"
    },
    {
      "inputs": [
        {
          "internalType": "address",
          "name": "",
          "type": "address"
        },
        {
          "internalType": "uint256",
          "name": "",
          "type": "uint256"
        }
      ],
      "name": "value",
      "outputs": [
        {
          "internalType": "string",
          "name": "",
          "type": "string"
        }
      ],
      "stateMutability": "view",
      "type": "function"
    }
  ],
  "bytecode": "0x608060405234801561001057600080fd5b50610c83806100206000396000f3fe608060405234801561001057600080fd5b50600436106100b45760003560e01c8063974fe59111610071578063974fe591146101d3578063a557880714610201578063a9ed9cb814610230578063bc8bef8114610243578063eb39113f146102ae578063ff9913e8146102ce57600080fd5b80630cb6aaf1146100b95780630f8b27d7146100e9578063227d5e9a146101095780632fb561061461014757806336d6da551461016a57806387a5b67c1461017f575b600080fd5b6100cc6100c73660046108a4565b6102e1565b6040516001600160a01b0390911681526020015b60405180910390f35b6100fc6100f73660046108d9565b61030b565b6040516100e09190610949565b610137610117366004610963565b600560209081526000928352604080842090915290825290205460ff1681565b60405190151581526020016100e0565b610137610155366004610996565b60036020526000908152604090205460ff1681565b61017d6101783660046109b1565b6103c4565b005b6101b461018d366004610996565b6002602052600090815260409020546001600160a01b03811690600160a01b900460ff1682565b604080516001600160a01b0390931683529015156020830152016100e0565b6101376101e1366004610963565b600160209081526000928352604080842090915290825290205460ff1681565b61013761020f366004610996565b336000908152600260205260409020546001600160a01b0390811691161490565b61017d61023e366004610996565b6103fb565b60408051808201825260008082526020918201819052338152600282528290208251808401909352546001600160a01b0381168352600160a01b900460ff161515908201526040805182516001600160a01b03168152602092830151151592810192909252016100e0565b6102c16102bc366004610996565b61056f565b6040516100e09190610a34565b61017d6102dc366004610996565b610720565b600481815481106102f157600080fd5b6000918252602090912001546001600160a01b0316905081565b6000602052816000526040600020818154811061032757600080fd5b9060005260206000200160009150915050805461034390610a98565b80601f016020809104026020016040519081016040528092919081815260200182805461036f90610a98565b80156103bc5780601f10610391576101008083540402835291602001916103bc565b820191906000526020600020905b81548152906001019060200180831161039f57829003601f168201915b505050505081565b6001600160a01b038316600090815260208181526040822080546001810182559083529120016103f5828483610b39565b50505050565b3360008181526001602090815260408083206001600160a01b038616808552908352818420805460ff1916905593835260028252808320805460ff60a01b1916905592825260039052205460ff161561056c576001600160a01b0381166000908152600360205260408120805460ff191690555b60045481101561056a57816001600160a01b03166004828154811061049657610496610bfa565b6000918252602090912001546001600160a01b03160361056257600480546104c090600190610c10565b815481106104d0576104d0610bfa565b600091825260209091200154600480546001600160a01b0390921691839081106104fc576104fc610bfa565b9060005260206000200160006101000a8154816001600160a01b0302191690836001600160a01b03160217905550600480548061053b5761053b610c37565b600082815260209020810160001990810180546001600160a01b031916905501905561056a565b60010161046f565b505b50565b60606001600160a01b0382163314806105ab57506001600160a01b038216600090815260016020908152604080832033845290915290205460ff165b6105f35760405162461bcd60e51b8152602060048201526015602482015274596f7520646f6e277420686176652061636365737360581b604482015260640160405180910390fd5b6001600160a01b03821660009081526020818152604080832080548251818502810185019093528083529192909190849084015b828210156106d357838290600052602060002001805461064690610a98565b80601f016020809104026020016040519081016040528092919081815260200182805461067290610a98565b80156106bf5780601f10610694576101008083540402835291602001916106bf565b820191906000526020600020905b8154815290600101906020018083116106a257829003601f168201915b505050505081526020019060010190610627565b505050509050336001600160a01b03167f0a76f15c198c9f420d3ee630a2166e16dd9027b0e34c17024337731fb885dad5826040516107129190610a34565b60405180910390a292915050565b3360009081526001602081815260408084206001600160a01b03861685528252808420805460ff19169093179092556003905290205460ff166107c3576001600160a01b0381166000818152600360205260408120805460ff191660019081179091556004805491820181559091527f8a35acfbc15ff81a39ae7d344fd709f28e8600b4aa8c65c6b64bfe7fe36bd19b0180546001600160a01b03191690911790555b3360009081526005602090815260408083206001600160a01b038516845290915290205460ff161561083457336000908152600260205260409020546001600160a01b0380831691160361056c57336000908152600260205260409020805460ff60a01b1916600160a01b17905550565b6040805180820182526001600160a01b0380841680835260016020808501828152336000908152600283528781209651875492511515600160a01b026001600160a81b03199093169616959095171790945560058452848320918352925291909120805460ff1916909117905550565b6000602082840312156108b657600080fd5b5035919050565b80356001600160a01b03811681146108d457600080fd5b919050565b600080604083850312156108ec57600080fd5b6108f5836108bd565b946020939093013593505050565b6000815180845260005b818110156109295760208185018101518683018201520161090d565b506000602082860101526020601f19601f83011685010191505092915050565b60208152600061095c6020830184610903565b9392505050565b6000806040838503121561097657600080fd5b61097f836108bd565b915061098d602084016108bd565b90509250929050565b6000602082840312156109a857600080fd5b61095c826108bd565b6000806000604084860312156109c657600080fd5b6109cf846108bd565b9250602084013567ffffffffffffffff808211156109ec57600080fd5b818601915086601f830112610a0057600080fd5b813581811115610a0f57600080fd5b876020828501011115610a2157600080fd5b6020830194508093505050509250925092565b600060208083016020845280855180835260408601915060408160051b87010192506020870160005b82811015610a8b57603f19888603018452610a79858351610903565b94509285019290850190600101610a5d565b5092979650505050505050565b600181811c90821680610aac57607f821691505b602082108103610acc57634e487b7160e01b600052602260045260246000fd5b50919050565b634e487b7160e01b600052604160045260246000fd5b601f821115610b34576000816000526020600020601f850160051c81016020861015610b115750805b601f850160051c820191505b81811015610b3057828155600101610b1d565b5050505b505050565b67ffffffffffffffff831115610b5157610b51610ad2565b610b6583610b5f8354610a98565b83610ae8565b6000601f841160018114610b995760008515610b815750838201355b600019600387901b1c1916600186901b178355610bf3565b600083815260209020601f19861690835b82811015610bca5786850135825560209485019460019092019101610baa565b5086821015610be75760001960f88860031b161c19848701351681555b505060018560011b0183555b5050505050565b634e487b7160e01b600052603260045260246000fd5b81810381811115610c3157634e487b7160e01b600052601160045260246000fd5b92915050565b634e487b7160e01b600052603160045260246000fdfea264697066735822122020592f3404038fdcd06b5a07d737600c4545ae2195b21c7d79bd5447cbf396a964736f6c63430008180033",
  "linkReferences": {},
  "deployedLinkReferences": {}
}