{
  "_format": "hh-sol-artifact-1",
  "contractName": "Upload",
  "sourceName": "contracts/Upload.sol",
  "abi": [
    {
      "anonymous": false,
      "inputs": [
        {
          "indexed": true,
          "internalType": "address",
          "name": "owner",
          "type": "address"
        },
        {
          "indexed": false,
          "internalType": "string[]",
          "name": "_urls",
          "type": "string[]"
        }
      ],
      "name": "DisplayUrls",
      "type": "event"
    },
    {
      "inputs": [
        {
          "internalType": "address",
          "name": "",
          "type": "address"
        }
      ],
      "name": "accessList",
      "outputs": [
        {
          "internalType": "address",
          "name": "user",
          "type": "address"
        },
        {
          "internalType": "bool",
          "name": "access",
          "type": "bool"
        }
      ],
      "stateMutability": "view",
      "type": "function"
    },
    {
      "inputs": [
        {
          "internalType": "address",
          "name": "_user",
          "type": "address"
        },
        {
          "internalType": "string",
          "name": "url",
          "type": "string"
        }
      ],
      "name": "add",
      "outputs": [],
      "stateMutability": "nonpayable",
      "type": "function"
    },
    {
      "inputs": [
        {
          "internalType": "address",
          "name": "_user",
          "type": "address"
        }
      ],
      "name": "allow",
      "outputs": [],
      "stateMutability": "nonpayable",
      "type": "function"
    },
    {
      "inputs": [
        {
          "internalType": "address",
          "name": "_user",
          "type": "address"
        }
      ],
      "name": "disallow",
      "outputs": [],
      "stateMutability": "nonpayable",
      "type": "function"
    },
    {
      "inputs": [
        {
          "internalType": "address",
          "name": "_user",
          "type": "address"
        }
      ],
      "name": "display",
      "outputs": [
        {
          "internalType": "string[]",
          "name": "",
          "type": "string[]"
        }
      ],
      "stateMutability": "nonpayable",
      "type": "function"
    },
    {
      "inputs": [],
      "name": "shareAccess",
      "outputs": [
        {
          "components": [
            {
              "internalType": "address",
              "name": "user",
              "type": "address"
            },
            {
              "internalType": "bool",
              "name": "access",
              "type": "bool"
            }
          ],
          "internalType": "struct Upload.Access",
          "name": "",
          "type": "tuple"
        }
      ],
      "stateMutability": "view",
      "type": "function"
    }
  ],
  "bytecode": "0x608060405234801561001057600080fd5b506109a4806100206000396000f3fe608060405234801561001057600080fd5b50600436106100625760003560e01c806336d6da551461006757806387a5b67c1461007c578063a9ed9cb8146100d5578063bc8bef81146100e8578063eb39113f14610153578063ff9913e814610173575b600080fd5b61007a610075366004610682565b610186565b005b6100b161008a366004610705565b6002602052600090815260409020546001600160a01b03811690600160a01b900460ff1682565b604080516001600160a01b0390931683529015156020830152015b60405180910390f35b61007a6100e3366004610705565b6101bd565b60408051808201825260008082526020918201819052338152600282528290208251808401909352546001600160a01b0381168352600160a01b900460ff161515908201526040805182516001600160a01b03168152602092830151151592810192909252016100cc565b610166610161366004610705565b610331565b6040516100cc9190610727565b61007a610181366004610705565b6104e2565b6001600160a01b038316600090815260208181526040822080546001810182559083529120016101b782848361085a565b50505050565b3360008181526001602090815260408083206001600160a01b038616808552908352818420805460ff1916905593835260028252808320805460ff60a01b1916905592825260039052205460ff161561032e576001600160a01b0381166000908152600360205260408120805460ff191690555b60045481101561032c57816001600160a01b0316600482815481106102585761025861091b565b6000918252602090912001546001600160a01b031603610324576004805461028290600190610931565b815481106102925761029261091b565b600091825260209091200154600480546001600160a01b0390921691839081106102be576102be61091b565b9060005260206000200160006101000a8154816001600160a01b0302191690836001600160a01b0316021790555060048054806102fd576102fd610958565b600082815260209020810160001990810180546001600160a01b031916905501905561032c565b600101610231565b505b50565b60606001600160a01b03821633148061036d57506001600160a01b038216600090815260016020908152604080832033845290915290205460ff165b6103b55760405162461bcd60e51b8152602060048201526015602482015274596f7520646f6e277420686176652061636365737360581b604482015260640160405180910390fd5b6001600160a01b03821660009081526020818152604080832080548251818502810185019093528083529192909190849084015b82821015610495578382906000526020600020018054610408906107cf565b80601f0160208091040260200160405190810160405280929190818152602001828054610434906107cf565b80156104815780601f1061045657610100808354040283529160200191610481565b820191906000526020600020905b81548152906001019060200180831161046457829003601f168201915b5050505050815260200190600101906103e9565b505050509050336001600160a01b03167f0a76f15c198c9f420d3ee630a2166e16dd9027b0e34c17024337731fb885dad5826040516104d49190610727565b60405180910390a292915050565b3360009081526001602081815260408084206001600160a01b03861685528252808420805460ff19169093179092556003905290205460ff16610585576001600160a01b0381166000818152600360205260408120805460ff191660019081179091556004805491820181559091527f8a35acfbc15ff81a39ae7d344fd709f28e8600b4aa8c65c6b64bfe7fe36bd19b0180546001600160a01b03191690911790555b3360009081526005602090815260408083206001600160a01b038516845290915290205460ff16156105f657336000908152600260205260409020546001600160a01b0380831691160361032e57336000908152600260205260409020805460ff60a01b1916600160a01b17905550565b6040805180820182526001600160a01b0380841680835260016020808501828152336000908152600283528781209651875492511515600160a01b026001600160a81b03199093169616959095171790945560058452848320918352925291909120805460ff1916909117905550565b80356001600160a01b038116811461067d57600080fd5b919050565b60008060006040848603121561069757600080fd5b6106a084610666565b9250602084013567ffffffffffffffff808211156106bd57600080fd5b818601915086601f8301126106d157600080fd5b8135818111156106e057600080fd5b8760208285010111156106f257600080fd5b6020830194508093505050509250925092565b60006020828403121561071757600080fd5b61072082610666565b9392505050565b6000602080830181845280855180835260408601915060408160051b87010192508387016000805b838110156107ab57888603603f1901855282518051808852835b81811015610784578281018a01518982018b01528901610769565b508781018901849052601f01601f191690960187019550938601939186019160010161074f565b509398975050505050505050565b634e487b7160e01b600052604160045260246000fd5b600181811c908216806107e357607f821691505b60208210810361080357634e487b7160e01b600052602260045260246000fd5b50919050565b601f821115610855576000816000526020600020601f850160051c810160208610156108325750805b601f850160051c820191505b818110156108515782815560010161083e565b5050505b505050565b67ffffffffffffffff831115610872576108726107b9565b6108868361088083546107cf565b83610809565b6000601f8411600181146108ba57600085156108a25750838201355b600019600387901b1c1916600186901b178355610914565b600083815260209020601f19861690835b828110156108eb57868501358255602094850194600190920191016108cb565b50868210156109085760001960f88860031b161c19848701351681555b505060018560011b0183555b5050505050565b634e487b7160e01b600052603260045260246000fd5b8181038181111561095257634e487b7160e01b600052601160045260246000fd5b92915050565b634e487b7160e01b600052603160045260246000fdfea2646970667358221220ff2dcaec0aa60ef5168f011792fcbc5616e54475d8c3c9cf3a68260ddf03714864736f6c63430008180033",
  "linkReferences": {},
  "deployedLinkReferences": {}
}